{
  "_format": "hh-sol-artifact-1",
  "contractName": "DW",
  "sourceName": "contracts/NFT.sol",
  "abi": [
    {
      "inputs": [],
      "stateMutability": "nonpayable",
      "type": "constructor"
    },
    {
      "anonymous": false,
      "inputs": [
        {
          "indexed": true,
          "internalType": "address",
          "name": "addr",
          "type": "address"
        },
        {
          "indexed": true,
          "internalType": "address",
          "name": "from",
          "type": "address"
        },
        {
          "indexed": false,
          "internalType": "uint256",
          "name": "amount",
          "type": "uint256"
        }
      ],
      "name": "MatchPayout",
      "type": "event"
    },
    {
      "anonymous": false,
      "inputs": [
        {
          "indexed": true,
          "internalType": "address",
          "name": "addr",
          "type": "address"
        },
        {
          "indexed": false,
          "internalType": "uint256",
          "name": "amount",
          "type": "uint256"
        }
      ],
      "name": "NewDeposit",
      "type": "event"
    },
    {
      "anonymous": false,
      "inputs": [
        {
          "indexed": true,
          "internalType": "address",
          "name": "addr",
          "type": "address"
        },
        {
          "indexed": false,
          "internalType": "uint256",
          "name": "amount",
          "type": "uint256"
        }
      ],
      "name": "NewWithdraw",
      "type": "event"
    },
    {
      "inputs": [],
      "name": "contractInfo",
      "outputs": [
        {
          "internalType": "uint256",
          "name": "_invested",
          "type": "uint256"
        },
        {
          "internalType": "uint256",
          "name": "_withdrawn",
          "type": "uint256"
        }
      ],
      "stateMutability": "view",
      "type": "function"
    },
    {
      "inputs": [],
      "name": "deposit",
      "outputs": [],
      "stateMutability": "payable",
      "type": "function"
    },
    {
      "inputs": [],
      "name": "invest",
      "outputs": [],
      "stateMutability": "payable",
      "type": "function"
    },
    {
      "inputs": [],
      "name": "invested",
      "outputs": [
        {
          "internalType": "uint256",
          "name": "",
          "type": "uint256"
        }
      ],
      "stateMutability": "view",
      "type": "function"
    },
    {
      "inputs": [],
      "name": "owner",
      "outputs": [
        {
          "internalType": "address",
          "name": "",
          "type": "address"
        }
      ],
      "stateMutability": "view",
      "type": "function"
    },
    {
      "inputs": [
        {
          "internalType": "address",
          "name": "",
          "type": "address"
        }
      ],
      "name": "players",
      "outputs": [
        {
          "internalType": "uint256",
          "name": "left_invest",
          "type": "uint256"
        },
        {
          "internalType": "uint40",
          "name": "last_payout",
          "type": "uint40"
        },
        {
          "internalType": "uint256",
          "name": "total_invested",
          "type": "uint256"
        },
        {
          "internalType": "uint256",
          "name": "total_withdrawn",
          "type": "uint256"
        }
      ],
      "stateMutability": "view",
      "type": "function"
    },
    {
      "inputs": [],
      "name": "setTradeOn",
      "outputs": [],
      "stateMutability": "nonpayable",
      "type": "function"
    },
    {
      "inputs": [],
      "name": "tradeOn",
      "outputs": [
        {
          "internalType": "bool",
          "name": "",
          "type": "bool"
        }
      ],
      "stateMutability": "view",
      "type": "function"
    },
    {
      "inputs": [
        {
          "internalType": "address",
          "name": "_addr",
          "type": "address"
        }
      ],
      "name": "userInfo",
      "outputs": [
        {
          "internalType": "uint256",
          "name": "left_invest",
          "type": "uint256"
        },
        {
          "internalType": "uint256",
          "name": "total_invested",
          "type": "uint256"
        },
        {
          "internalType": "uint256",
          "name": "total_withdrawn",
          "type": "uint256"
        },
        {
          "internalType": "uint256",
          "name": "last_payout",
          "type": "uint256"
        },
        {
          "components": [
            {
              "internalType": "uint256",
              "name": "amount",
              "type": "uint256"
            },
            {
              "internalType": "uint40",
              "name": "time",
              "type": "uint40"
            }
          ],
          "internalType": "struct Deposit[]",
          "name": "deposits",
          "type": "tuple[]"
        },
        {
          "components": [
            {
              "internalType": "uint256",
              "name": "amount",
              "type": "uint256"
            },
            {
              "internalType": "uint40",
              "name": "time",
              "type": "uint40"
            }
          ],
          "internalType": "struct Withdraw[]",
          "name": "withdraws",
          "type": "tuple[]"
        }
      ],
      "stateMutability": "view",
      "type": "function"
    },
    {
      "inputs": [
        {
          "internalType": "uint256",
          "name": "_amount",
          "type": "uint256"
        }
      ],
      "name": "withdraw",
      "outputs": [],
      "stateMutability": "payable",
      "type": "function"
    },
    {
      "inputs": [],
      "name": "withdrawn",
      "outputs": [
        {
          "internalType": "uint256",
          "name": "",
          "type": "uint256"
        }
      ],
      "stateMutability": "view",
      "type": "function"
    }
  ],
  "bytecode": "0x608060405234801561001057600080fd5b50336000806101000a81548173ffffffffffffffffffffffffffffffffffffffff021916908373ffffffffffffffffffffffffffffffffffffffff1602179055506001600360006101000a81548160ff02191690831515021790555061116e8061007b6000396000f3fe60806040526004361061009c5760003560e01c8063c80ec52211610064578063c80ec52214610181578063cafb2202146101ac578063d0e30db0146101d7578063d81f0028146101e1578063e2eb41ff146101f8578063e8b5e51f146102385761009c565b806315c43aaf146100a15780631959a002146100cd5780632e1a7d4d1461010f5780635cbd45531461012b5780638da5cb5b14610156575b600080fd5b3480156100ad57600080fd5b506100b6610242565b6040516100c4929190610dce565b60405180910390f35b3480156100d957600080fd5b506100f460048036038101906100ef9190610a7b565b610253565b60405161010696959493929190610df7565b60405180910390f35b61012960048036038101906101249190610aa4565b610404565b005b34801561013757600080fd5b50610140610691565b60405161014d9190610d18565b60405180910390f35b34801561016257600080fd5b5061016b6106a4565b6040516101789190610cfd565b60405180910390f35b34801561018d57600080fd5b506101966106c8565b6040516101a39190610db3565b60405180910390f35b3480156101b857600080fd5b506101c16106ce565b6040516101ce9190610db3565b60405180910390f35b6101df6106d4565b005b3480156101ed57600080fd5b506101f661088b565b005b34801561020457600080fd5b5061021f600480360381019061021a9190610a7b565b610936565b60405161022f9493929190610e66565b60405180910390f35b610240610977565b005b600080600154600254915091509091565b6000806000806060806000600460008973ffffffffffffffffffffffffffffffffffffffff1673ffffffffffffffffffffffffffffffffffffffff16815260200190815260200160002090508060000154816002015482600301548360010160009054906101000a900464ffffffffff1684600401856005018264ffffffffff16925081805480602002602001604051908101604052809291908181526020016000905b8282101561035c5783829060005260206000209060020201604051806040016040529081600082015481526020016001820160009054906101000a900464ffffffffff1664ffffffffff1664ffffffffff1681525050815260200190600101906102f7565b50505050915080805480602002602001604051908101604052809291908181526020016000905b828210156103e85783829060005260206000209060020201604051806040016040529081600082015481526020016001820160009054906101000a900464ffffffffff1664ffffffffff1664ffffffffff168152505081526020019060010190610383565b5050505090509650965096509650965096505091939550919395565b60011515600360009054906101000a900460ff1615151461045a576040517f08c379a000000000000000000000000000000000000000000000000000000000815260040161045190610d33565b60405180910390fd5b6000600460003373ffffffffffffffffffffffffffffffffffffffff1673ffffffffffffffffffffffffffffffffffffffff168152602001908152602001600020905060008160000154116104e4576040517f08c379a00000000000000000000000000000000000000000000000000000000081526004016104db90610d53565b60405180910390fd5b818160000154101561052b576040517f08c379a000000000000000000000000000000000000000000000000000000000815260040161052290610d73565b60405180910390fd5b8060050160405180604001604052808481526020014264ffffffffff1681525090806001815401808255809150506001900390600052602060002090600202016000909190919091506000820151816000015560208201518160010160006101000a81548164ffffffffff021916908364ffffffffff1602179055505050818160000160008282546105bd9190610f84565b92505081905550818160030160008282546105d89190610f2e565b9250508190555081600260008282546105f19190610f2e565b925050819055503373ffffffffffffffffffffffffffffffffffffffff166108fc839081150290604051600060405180830381858888f1935050505015801561063e573d6000803e3d6000fd5b503373ffffffffffffffffffffffffffffffffffffffff167fc0eb7a138362772da4d1d9adfe7f13a30f35b960c48ae439f3afcd4d08e81452836040516106859190610db3565b60405180910390a25050565b600360009054906101000a900460ff1681565b60008054906101000a900473ffffffffffffffffffffffffffffffffffffffff1681565b60025481565b60015481565b60011515600360009054906101000a900460ff1615151461072a576040517f08c379a000000000000000000000000000000000000000000000000000000000815260040161072190610d33565b60405180910390fd5b6000600460003373ffffffffffffffffffffffffffffffffffffffff1673ffffffffffffffffffffffffffffffffffffffff16815260200190815260200160002090508060040160405180604001604052803481526020014264ffffffffff1681525090806001815401808255809150506001900390600052602060002090600202016000909190919091506000820151816000015560208201518160010160006101000a81548164ffffffffff021916908364ffffffffff1602179055505050348160020160008282546107ff9190610f2e565b925050819055503481600001600082825461081a9190610f2e565b9250508190555034600160008282546108339190610f2e565b925050819055503373ffffffffffffffffffffffffffffffffffffffff167f2cb77763bc1e8490c1a904905c4d74b4269919aca114464f4bb4d911e60de364346040516108809190610db3565b60405180910390a250565b60008054906101000a900473ffffffffffffffffffffffffffffffffffffffff1673ffffffffffffffffffffffffffffffffffffffff163373ffffffffffffffffffffffffffffffffffffffff1614610919576040517f08c379a000000000000000000000000000000000000000000000000000000000815260040161091090610d93565b60405180910390fd5b6001600360006101000a81548160ff021916908315150217905550565b60046020528060005260406000206000915090508060000154908060010160009054906101000a900464ffffffffff16908060020154908060030154905084565b60008054906101000a900473ffffffffffffffffffffffffffffffffffffffff1673ffffffffffffffffffffffffffffffffffffffff163373ffffffffffffffffffffffffffffffffffffffff16146109cf57600080fd5b60008054906101000a900473ffffffffffffffffffffffffffffffffffffffff1673ffffffffffffffffffffffffffffffffffffffff166108fc479081150290604051600060405180830381858888f19350505050158015610a35573d6000803e3d6000fd5b504760026000828254610a489190610f2e565b92505081905550565b600081359050610a608161110a565b92915050565b600081359050610a7581611121565b92915050565b600060208284031215610a8d57600080fd5b6000610a9b84828501610a51565b91505092915050565b600060208284031215610ab657600080fd5b6000610ac484828501610a66565b91505092915050565b6000610ad98383610c63565b60408301905092915050565b6000610af18383610c92565b60408301905092915050565b610b0681610fb8565b82525050565b6000610b1782610ecb565b610b218185610efb565b9350610b2c83610eab565b8060005b83811015610b5d578151610b448882610acd565b9750610b4f83610ee1565b925050600181019050610b30565b5085935050505092915050565b6000610b7582610ed6565b610b7f8185610f0c565b9350610b8a83610ebb565b8060005b83811015610bbb578151610ba28882610ae5565b9750610bad83610eee565b925050600181019050610b8e565b5085935050505092915050565b610bd181610fca565b82525050565b6000610be4601783610f1d565b9150610bef82611040565b602082019050919050565b6000610c07600b83610f1d565b9150610c1282611069565b602082019050919050565b6000610c2a603083610f1d565b9150610c3582611092565b604082019050919050565b6000610c4d601183610f1d565b9150610c58826110e1565b602082019050919050565b604082016000820151610c796000850182610cc1565b506020820151610c8c6020850182610cdf565b50505050565b604082016000820151610ca86000850182610cc1565b506020820151610cbb6020850182610cdf565b50505050565b610cca81610ff6565b82525050565b610cd981610ff6565b82525050565b610ce881611000565b82525050565b610cf781611000565b82525050565b6000602082019050610d126000830184610afd565b92915050565b6000602082019050610d2d6000830184610bc8565b92915050565b60006020820190508181036000830152610d4c81610bd7565b9050919050565b60006020820190508181036000830152610d6c81610bfa565b9050919050565b60006020820190508181036000830152610d8c81610c1d565b9050919050565b60006020820190508181036000830152610dac81610c40565b9050919050565b6000602082019050610dc86000830184610cd0565b92915050565b6000604082019050610de36000830185610cd0565b610df06020830184610cd0565b9392505050565b600060c082019050610e0c6000830189610cd0565b610e196020830188610cd0565b610e266040830187610cd0565b610e336060830186610cd0565b8181036080830152610e458185610b0c565b905081810360a0830152610e598184610b6a565b9050979650505050505050565b6000608082019050610e7b6000830187610cd0565b610e886020830186610cee565b610e956040830185610cd0565b610ea26060830184610cd0565b95945050505050565b6000819050602082019050919050565b6000819050602082019050919050565b600081519050919050565b600081519050919050565b6000602082019050919050565b6000602082019050919050565b600082825260208201905092915050565b600082825260208201905092915050565b600082825260208201905092915050565b6000610f3982610ff6565b9150610f4483610ff6565b9250827fffffffffffffffffffffffffffffffffffffffffffffffffffffffffffffffff03821115610f7957610f78611011565b5b828201905092915050565b6000610f8f82610ff6565b9150610f9a83610ff6565b925082821015610fad57610fac611011565b5b828203905092915050565b6000610fc382610fd6565b9050919050565b60008115159050919050565b600073ffffffffffffffffffffffffffffffffffffffff82169050919050565b6000819050919050565b600064ffffffffff82169050919050565b7f4e487b7100000000000000000000000000000000000000000000000000000000600052601160045260246000fd5b7f50726f6a656374206973206e6f74206c61756e63686564000000000000000000600082015250565b7f5a65726f20616d6f756e74000000000000000000000000000000000000000000600082015250565b7f596f752063616e2774207769746864726177206d6f6e6579206d6f726520746860008201527f616e20796f75722062616c616e63652e00000000000000000000000000000000602082015250565b7f596f75206d757374206265206f776e6572000000000000000000000000000000600082015250565b61111381610fb8565b811461111e57600080fd5b50565b61112a81610ff6565b811461113557600080fd5b5056fea2646970667358221220b081c99beef693e4210c78d14665e11e27af9545439917087a0f460b55a770e864736f6c63430008040033",
  "linkReferences": {},
  "deployedLinkReferences": {}
}